:020000040C00EE
:100000000008001001020008452F0008472F0008D3
:10001000492F00084B2F00084D2F0008000000005A
:100020000000000000000000000000004F2F00084A
:10003000512F000800000000532F0008D53D000894
:10004000572F0008592F00085B2F00085D2F00086C
:100050005F2F0008612F0008632F0008652F00083C
:10006000672F0008000000000000000000000000F2
:10007000692F0008000000006B2F00086D2F00089A
:100080006F2F0008712F0008732F0008752F0008CC
:10009000772F0008792F00087B2F00087D2F00089C
:1000A0007F2F0008812F0008832F0008852F00086C
:1000B000872F0008892F00088B2F00088D2F00083C
:1000C0008F2F0008912F0008932F0008952F00080C
:1000D000972F0008992F00089B2F00089D2F0008DC
:1000E0009F2F0008A12F0008A32F0008A52F0008AC
:1000F000A72F0008A92F0008AB2F0008AD2F00087C
:10010000AF2F0008B12F0008B32F0008B52F00084B
:10011000B72F0008B92F0008BB2F0008BD2F00081B
:10012000BF2F0008C12F0008C32F0008C52F0008EB
:10013000C72F0008C92F0008CB2F0008CD2F0008BB
:10014000CF2F0008D12F0008D32F0008D52F00088B
:10015000D72F0008D92F0008DB2F0008DD2F00085B
:10016000000000000000000000000000000000008F
:10017000DF2F0008E12F0008E32F0008E52F00081B
:10018000E72F0008E92F0008EB2F0008ED2F0008EB
:10019000EF2F0008F12F0008F32F0008F52F0008BB
:1001A000F72F0008F92F0008FB2F0008FD2F00088B
:1001B000FF2F000801300008033000080530000858
:1001C00007300008093000080B3000080D30000827
:1001D0000F30000811300008133000080000000044
:1001E0001530000817300008193000081B300008CF
:1001F0001D300008000000001F3000080000000053
:10020000DFF80CD0034880470348804700F017B858
:100210000008001029300008614D0008002A00F095
:100220000D804FEA920203680B60013A00F00680ED
:1002300000F1040001F10401FFF7F5BF7047144815
:100240001449154AFFF7EAFF14481549154AFFF704
:10025000E5FF15481549002900F00C804FEA91018F
:100260004FF000020260013900F0048000F1040048
:10027000FFF7F8BF0E480F4908600F488047DFF8C6
:100280003CD04FF000004FF00001DFF834F00000E8
:100290001060000C00000020200000003060000C06
:1002A0000008001000000000200000204C070000A3
:1002B0000000000808ED00E04D5F00080008001095
:1002C000992E000800BF704780B483B000AF45F698
:1002D000F473C0F600035B687B607B68D3F8183169
:1002E00043F400427B68C3F8182107F10C07BD46B0
:1002F00080BC704780B400AF4FF40073C4F60203B3
:100300009B6C03F49073002B29D04FF40073C4F658
:1003100002034FF40072C4F60202D26C6FEA92221A
:100320006FEA8222DA644FF40073C4F602034FF4DA
:100330000072C4F60202D2F8182142F40042C3F857
:1003400018214FF40073C4F602034FF40072C4F690
:100350000202926E22F0030242F002029A66BD4649
:1003600080BC704780B500AF4FF002004FF0010134
:1003700042F61532C0F6000240F22033C2F200030A
:1003800003F088FD024640F22003C2F200031A6027
:1003900040F22003C2F200031B68184603F04AFE35
:1003A00080BD00BF80B586B000AF786040F2040326
:1003B000C2F200031B78DBB2002B40F06B8140F2ED
:1003C0002033C2F200035B784FEA03239AB240F273
:1003D0002033C2F200031B781343FB8240F2203328
:1003E000C2F20003DB784FEA03239AB240F22033D3
:1003F000C2F200039B781343FB8140F22033C2F228
:1004000000035B794FEA03239AB240F22033C2F231
:1004100000031B791343BB8140F29003C2F2000337
:100420001B78002B1DD0FA8A40F21433C2F200036D
:100430001B889BB2D31A9BB2FB82FA8A40F2143318
:10044000C2F200035B889BB2D31A9BB2FB82FA8A8A
:1004500040F21433C2F200039B889BB2D31A9BB2C2
:10046000FB82B7F91630184601F0E0FF07EE900A5C
:10047000FDEEE77A17EE903AFB82B7F90E30184698
:1004800001F0D4FF07EE900AFDEEE77A17EE903AFE
:10049000FB81B7F90C30184601F0C8FF07EE900A4F
:1004A000FDEEE77A17EE903ABB8140F22403C2F2E8
:1004B0000003196840F2BC02C2F200020B464FEA88
:1004C00043035B184FEA4303D318FA8A1A8040F2B9
:1004D0002403C2F20003196840F2BC02C2F2000217
:1004E0000B464FEA43035B184FEA4303D318FA89DC
:1004F0005A8040F22403C2F20003196840F2BC02A1
:10050000C2F200020B464FEA43035B184FEA430373
:10051000D318BA899A8040F22033C2F20003DB7903
:100520004FEA43039AB240F22033C2F200039B79B0
:100530001343BB8240F22033C2F200035B7A4FEADE
:1005400043039AB240F22033C2F200031B7A1343F2
:100550007B8240F22033C2F20003DB7A4FEA43038E
:100560009AB240F22033C2F200039B7A13433B82DB
:1005700040F29003C2F200031B78002B1DD0BA8A10
:1005800040F2B403C2F200031B889BB2D31A9BB2A1
:10059000BB827A8A40F2B403C2F200035B889BB24A
:1005A000D31A9BB27B823A8A40F2B403C2F20003B0
:1005B0009B889BB2D31A9BB23B82B7F91430184682
:1005C00001F00AFF07EE900AFDEEE77A17EE903A87
:1005D000BB82B7F91230184601F0FEFE07EE900A12
:1005E000FDEEE77A17EE903A7B82B7F910301846A5
:1005F00001F0F2FE07EE900AFDEEE77A17EE903A70
:100600003B8240F22403C2F20003196840F2BC02AC
:10061000C2F200020B464FEA43035B184FEA430362
:10062000D318BA8A1A8040F22403C2F20003196870
:1006300040F2BC02C2F200020B464FEA43035B18D1
:100640004FEA4303D3187A8A5A8040F22403C2F255
:100650000003196840F2BC02C2F200020B464FEAE6
:1006600043035B184FEA4303D3183A8A9A8040F257
:100670002403C2F200031B6803F1010240F22403C9
:10068000C2F200031A6040F20403C2F200034FF00A
:1006900001021A7040F22403C2F200031B68632BAC
:1006A00006DD40F22403C2F200034FF000021A609C
:1006B00007F11807BD4680BD80B400AF40F220337B
:1006C000C2F200034FF06B029A7440F22033C2F280
:1006D00000034FF01E02DA7440F22033C2F200032E
:1006E0004FF028021A7540F22033C2F200034FF097
:1006F00018025A7540F22033C2F200034FF028026C
:100700009A75BD4680BC704780B582B000AF4FF08F
:1007100001004FF06B014FF01E0200F023F840F291
:100720006803C2F200034FF001021A7040F268033E
:10073000C2F200034FF01E029A7040F26803C2F248
:1007400000034FF06B025A70FFF7B6FF00F068F934
:100750000346002B02D14FF000037B6007F108072E
:10076000BD4680BD80B485B000AF13460246FA7125
:100770000A46BA717B7140F26803C2F20003FA794B
:100780001A7040F26803C2F20003BA795A7040F25C
:100790006803C2F200037A799A7040F26803C2F2E9
:1007A00000034FF001021A7140F26803C2F2000325
:1007B0004FF001025A7440F26803C2F200034FF096
:1007C00001029A7440F26803C2F200034FF0010282
:1007D000DA7440F26803C2F200034FF0F502DA80E7
:1007E00040F26803C2F200034FF003021A7240F2B3
:1007F0006803C2F200034FF000025A7240F268032D
:10080000C2F200034FF000029A7240F26803C2F293
:1008100000034FF00002DA7240F26803C2F20003F4
:100820004FF000021A7340F26803C2F200034FF067
:1008300000025A7340F26803C2F200034FF0000254
:100840009A7340F26803C2F200034FF00002DA73B9
:1008500040F26803C2F200034FF000021A7440F243
:100860006803C2F200034FF001021A7540F26803F8
:10087000C2F200034FF001029A7540F26803C2F21F
:1008800000034FF001025A7640F26803C2F20003FF
:100890004FF001029A7640F26803C2F200034FF073
:1008A0000102DA7640F26803C2F200034FF002025E
:1008B000DA7540F26803C2F200034FF006021A76BE
:1008C00040F26803C2F200034FF0FF021A7740F2D1
:1008D0006803C2F200034FF000025A7740F2680347
:1008E000C2F200034FF000029A7740F26803C2F2AE
:1008F00000034FF00102DA7740F26803C2F200030E
:100900004FF0040283F8202040F26803C2F2000393
:100910004FF0070283F8212040F26803C2F200037F
:100920004FF0000283F8222040F26803C2F2000375
:100930004FF0030283F8232040F26803C2F2000361
:100940004FF0030283F8242040F26803C2F2000350
:100950004FF0000283F8252040F26803C2F2000342
:100960004FF0000283F8262040F26803C2F2000331
:100970004FF0010283F827204FF00003FB603FE0B7
:1009800040F24433C2F20003FA684FEA82029B1835
:100990004FF000021A6040F25003C2F20003FA68FE
:1009A0004FEA82029B184FF000021A6040F2603357
:1009B000C2F20003FA684FEA82029B184FF000026D
:1009C0001A6040F2B403C2F20003FA684FF000016B
:1009D00023F8121040F21433C2F20003FA684FF009
:1009E000000123F8121040F25C03C2F20003FA681F
:1009F0004FF0000123F81210FB6803F10103FB60C4
:100A0000FB68022BBCDD40F29003C2F200034FF002
:100A100000021A7007F11407BD4680BC704700BF82
:100A200080B582B000AF40F26803C2F200035A788A
:100A300040F2AD03C2F200031A7040F26803C2F242
:100A400000039A7840F2AC03C2F200031A7000F07F
:100A500043F800F0BBF800F0EDF800F0D1F840F2F8
:100A60006803C2F200031B78012B02D100F0A2F848
:100A700008E040F26803C2F200031B78002B01D1AA
:100A800000F09EF84FF00F0000F0F0F90346FB7104
:100A90004FF00F0000F008FA0346BB71BB794FEA34
:100AA00003239AB2FB799BB213439BB2BB80BA88F3
:100AB00046F63D039A4202D04FF0000306E000F0F4
:100AC00011FA00F069FB00F009FCBB88184607F139
:100AD0000807BD4680BD00BF80B400AF40F2680388
:100AE000C2F20003DB88F52B16D040F26803C2F295
:100AF0000003DB88B3F5FA7F0ED040F26803C2F240
:100B00000003DB88B3F5FA6F06D040F26803C2F247
:100B100000034FF0F502DA8040F26803C2F20003EE
:100B2000DB7D022B1BD040F26803C2F20003DB7DA9
:100B3000042B14D040F26803C2F20003DB7D082BC3
:100B40000DD040F26803C2F20003DB7D102B06D00B
:100B500040F26803C2F200034FF00202DA7540F27D
:100B60006803C2F2000393F82030042B1FD040F238
:100B70006803C2F2000393F82030082B17D040F22C
:100B80006803C2F2000393F820300C2B0FD040F220
:100B90006803C2F2000393F82030102B07D040F214
:100BA0006803C2F200034FF0040283F82020BD4620
:100BB00080BC704780B400AFBD4680BC704700BFAA
:100BC00080B400AFBD4680BC704700BF80B400AFAA
:100BD00040F26803C2F20003DB8807EE903AB8EEF9
:100BE000677ADFED067AC7EE277A40F23C33C2F22D
:100BF0000003C3ED007ABD4680BC7047000000478B
:100C000080B400AF40F26803C2F20003DB7D07EE60
:100C1000903AB8EE677ADFED067AC7EE277A40F2AF
:100C2000A803C2F20003C3ED007ABD4680BC704742
:100C30000000004780B400AF40F26803C2F2000336
:100C400093F82030A3F104030C2B49D801A252F8E9
:100C500023F000BF890C0008E10C0008E10C00083B
:100C6000E10C00089F0C0008E10C0008E10C0008F2
:100C7000E10C0008B50C0008E10C0008E10C0008CC
:100C8000E10C0008CB0C000840F20803C2F200039C
:100C90001A6840F25033C2F200031A6020E040F2BA
:100CA0000803C2F200035A6840F25033C2F2000354
:100CB0001A6015E040F20803C2F200039A6840F29D
:100CC0005033C2F200031A600AE040F20803C2F295
:100CD0000003DA6840F25033C2F200031A6000BF2A
:100CE000BD4680BC704700BF80B485B000AF78605F
:100CF0004FF00003FB6007E0FB6803F10103FB60BA
:100D0000FB6803F10103FB60FA687B689A42F3DB3E
:100D100007F11407BD4680BC704700BF80B58AB09C
:100D200000AF02460B46FA71BB714FF000037B62C5
:100D30004FF0040387F82130FB794FEA4303DBB21D
:100D400087F8203000BF07F1200345F6F470C0F6A5
:100D50000000194603F0ECFE0346002BF3D042F2EC
:100D60001070FFF7C1FF4FF000037B77BB793B7733
:100D700000BF07F11C0345F6F470C0F600001946E9
:100D800003F0D6FE0346002BF3D042F21070FFF7BB
:100D9000ABFF4FF005037B76FB794FEA4303DBB2F1
:100DA00043F00103DBB23B7600BF07F1180345F6C1
:100DB000F470C0F60000194603F0BAFE0346002B9B
:100DC000F3D042F21070FFF78FFF4FF003037B75F3
:100DD0004FF0FF033B7500BF07F1140345F6F470B5
:100DE000C0F60000194603F0A3FE0346002BF3D023
:100DF00042F21070FFF778FF4FF006037B744FF05C
:100E0000FF033B7400BF07F1100345F6F470C0F612
:100E10000000194603F08CFE0346002BF3D07B6ADA
:100E200003F101037B6242F21070FFF75DFF4FF0A8
:100E30000003FB8107F10E0345F6F470C0F60000D5
:100E4000194603F04BFE0346002B04D07B6A03F1E6
:100E500001037B6203E07B6A03F1FF337B62FB8962
:100E6000DBB2184607F12807BD4680BD80B582B0C9
:100E700000AF0346FB7140F26803C2F200031B7827
:100E8000012B0BD140F2AC03C2F200031A78FB79BC
:100E900010461946FFF742FF0346FFE7184607F1E1
:100EA0000807BD4680BD00BF80B582B000AF0346D5
:100EB000FB7140F26803C2F200031B78012B0BD1D7
:100EC00040F2AD03C2F200031A78FB7910461946CE
:100ED000FFF724FF0346FFE7184607F10807BD4662
:100EE00080BD00BF80B582B000AF4FF00003FB7142
:100EF00040F26803C2F200031B79002B07D040F2D6
:100F00006803C2F200031B7A4FEA4313FB7140F2FD
:100F10006803C2F20003DB88B3F5FA7F03D0B3F5B0
:100F2000FA6F05D009E0FB7943F00803FB7104E098
:100F3000FB7943F01803FB7100BF40F26803C2F273
:100F400000035B7ADBB203F00303DAB2FB791343ED
:100F5000DBB2FB71FB794FF01000194600F094F8FA
:100F60004FF011004FF0000100F08EF840F26803DE
:100F7000C2F200039B7A002B02D04FF0800301E005
:100F80004FF00003FB7140F26803C2F20003DB7A0A
:100F9000002B0FD040F26803C2F200031B7BDBB2D0
:100FA00003F00F03DBB243F04003DAB2FB791343E3
:100FB000DBB2FB71FB794FF01200194600F064F8C8
:100FC0004FF00003FB7140F26803C2F20003DB7CC8
:100FD000002B03D0FB7943F02003FB7140F2680340
:100FE000C2F200039B7C002B03D0FB7943F010037B
:100FF000FB7140F26803C2F200035B7C002B03D05C
:10100000FB7943F00803FB7140F26803C2F200036E
:101010001B7D002B03D0FB7943F00203FB71FB79AE
:101020004FF01E00194600F02FF84FF00003FB713F
:1010300040F26803C2F200035B7B002B03D0FB7914
:1010400043F02003FB7140F26803C2F200039B7B74
:10105000002B03D0FB7943F01003FB7140F26803CF
:10106000C2F20003DB7B002B03D0FB7943F00803C3
:10107000FB71FB794FF01300194600F005F807F1FA
:101080000807BD4680BD00BF80B582B000AF0246F4
:101090000B46FA71BB7140F26803C2F200031B7881
:1010A000012B0BD140F2AD03C2F200031978FA799B
:1010B000BB79084611461A4600F004F807F1080704
:1010C000BD4680BD80B586B000AF13460246FA71BA
:1010D0000A46BA717B714FF004037B75FB794FEAC6
:1010E0004303DBB23B7500BF07F1140345F6F47010
:1010F000C0F60000194603F01BFD0346002BF3D099
:1011000042F21070FFF7F0FD4FF000037B74BB79E3
:101110003B7400BF07F1100345F6F470C0F6000001
:10112000194603F005FD0346002BF3D042F2107080
:10113000FFF7DAFD4FF000037B737B793B7300BF51
:1011400007F10C0345F6F470C0F60000194603F0F1
:10115000EFFC0346002BF3D042F21070FFF7C4FD02
:101160004FF006037B724FF0FF033B7200BF07F1A5
:10117000080345F6F470C0F60000194603F0D8FCE9
:101180000346002BF3D042F21070FFF7ADFD07F1DC
:101190001807BD4680BD00BF80B582B000AF4FF0DC
:1011A0000003FB7140F26803C2F20003DB7E002BF8
:1011B00003D0FB7943F02003FB7140F26803C2F2D5
:1011C00000039B7E002B03D0FB7943F01003FB71DF
:1011D00040F26803C2F200035B7E002B03D0FB7970
:1011E00043F00803FB71FB794FF01F001946FFF72E
:1011F0004BFF4FF00003FB7140F26803C2F20003A3
:101200009B7D002B0BD040F26803C2F200031B7ED3
:101210004FEA4313DAB2FB791343DBB2FB7140F2BE
:101220006803C2F20003DB7D082B08D0102B0BD023
:10123000042B0ED1FB7943F01003FB7109E0FB791D
:1012400043F01803FB7104E0FB7943F00803FB71E2
:1012500000BF40F26803C2F200031B7F5BB2002BA9
:101260000FDBFB7943F00403FB7140F26803C2F229
:1012700000031B7F03F00303DAB2FB791343DBB2F5
:10128000FB71FB794FF020001946FFF7FDFE4FF090
:101290000003FB7140F26803C2F200035B7F002B86
:1012A00011D0FB7963F07F03FB7140F26803C2F257
:1012B00000039B7F03F003034FEA4313DAB2FB7989
:1012C0001343DBB2FB71FB794FF021001946FFF7A6
:1012D000DBFE07F10807BD4680BD00BF80B582B0C8
:1012E00000AF4FF00003FB7140F26803C2F200034D
:1012F00093F82230002B03D0FB7963F07F03FB715E
:1013000040F26803C2F2000393F8233003F00303B2
:101310004FEA4313DAB2FB791343DBB2FB7140F2BD
:101320006803C2F2000393F8213003F007034FEA89
:101330008303DAB2FB791343DBB2FB71FB794FF025
:101340002000194600F06AF84FF00003FB7140F2EC
:101350006803C2F2000393F820300C2B08D0102B46
:101360000BD0082B0ED1FB7943F02003FB7109E071
:10137000FB7943F04003FB7104E0FB7943F0600329
:10138000FB7100BFFB794FF02100194600F046F8D1
:101390004FF00003FB7140F26803C2F2000393F8C0
:1013A0002530002B03D0FB7943F02003FB7140F282
:1013B0006803C2F2000393F82630DBB203F00303A4
:1013C000DAB2FB791343DBB2FB71FB794FF02200F9
:1013D000194600F023F84FF00003FB7140F2680358
:1013E000C2F2000393F8243003F00303DBB24FEAA8
:1013F0008303FB71FB794FF02300194600F00EF8D0
:101400004FF00003FB71FB794FF02400194600F008
:1014100005F807F10807BD4680BD00BF80B582B062
:1014200000AF02460B46FA71BB7140F26803C2F28C
:1014300000031B78012B0CD140F2AC03C2F2000375
:101440001978FA79BB79084611461A46FFF73AFE31
:1014500000BF07F10807BD4680BD00BF80B584B05E
:1014600000AF0346FB714FF02300FFF71DFD03465D
:10147000FB73FB79002B04D0FB7B43F00203FB736F
:1014800003E0FB7B23F00203FB73FB7B4FF02300A5
:101490001946FFF7F9FD07F11007BD4680BD00BFF3
:1014A00080B584B000AF02460B46FA71BB71BB79C0
:1014B0001F2B28BF1F23FB73FB794FEA4313DAB2BC
:1014C000FB7B03F01F03DBB21343DBB2DBB24FF055
:1014D0002E001946FFF7D8FD07F11007BD4680BD65
:1014E000B0B58CB000AF0346FB714FF0000387F836
:1014F00024304FF0000387F825304FF0000387F8C1
:1015000026304FF0000387F827304FF0000387F8AC
:1015100028304FF0000387F829304FF0000387F898
:101520002B304FF00003BB614FF00003FB614FF025
:1015300000033B624FF00003FB604FF000033B6190
:101540004FF000037B614FF00100FFF787FF4FF082
:1015500001004FF01F01FFF7A3FF4FF02F00FFF72F
:10156000A3FC034603F03F0387F82B304FF0000342
:10157000FB6259E000F016F9FA6840F25433C2F207
:1015800000031B881BB2D318FB603A6940F2980332
:10159000C2F200031B881BB2D3183B617A6940F288
:1015A0003833C2F200031B881BB2D3187B6100F0F2
:1015B0009BF9BA6940F2A603C2F200031B881BB272
:1015C000D318BB61FA6940F25633C2F200031B889C
:1015D0001BB2D318FB613C6A40F29A03C2F20003CB
:1015E0001B881DB240F2A803C2F200031B68184614
:1015F00004F046F902460B464FF000004FF00001A0
:10160000C3F6F07104F0BAFA02460B4610461946CA
:1016100004F024FC03469BB21BB2EB1AE3183B62B6
:10162000FB6A03F10103FB6297F82B20FB6A9A42E5
:10163000A0DC4FF00003FB6255E0FB6A4FEA830336
:1016400007F13002D31853F8242C97F82B3092FB73
:10165000F3F399B240F2B403C2F20003FA6A23F83A
:10166000121040F2B403C2F20003FA6A33F81230E7
:101670001BB2184600F0B0FE024640F24433C2F2FC
:101680000003F96A4FEA81015B181A60FB6A4FEAAE
:10169000830307F13002D31853F8182C97F82B3036
:1016A00092FBF3F399B240F21433C2F20003FA6AE8
:1016B00023F8121040F21433C2F20003FA6A33F82E
:1016C00012301BB2184600F0B1FE024640F2500341
:1016D000C2F20003F96A4FEA81015B181A60FB6AE3
:1016E00003F10103FB6297F82B20FB6A9A42A4DC0A
:1016F0004FF00000FFF7B2FE4FF000004FF0000186
:10170000FFF7CEFEFB79002B06D040F29003C2F229
:1017100000034FF001021A7007F13007BD46B0BD5B
:1017200080B582B000AF396013460246FA71BB71D2
:1017300040F26803C2F200031B78012B0CD140F287
:10174000AD03C2F200031978FA79BB790846114655
:101750003A6800F051FA12E040F26803C2F2000366
:101760001B78002B0BD140F2AD03C2F200031978B5
:10177000FA79BB79084611463A6800F005F807F196
:101780000807BD4680BD00BF80B483B000AF3A609B
:101790000246FA710A46BA717B7107F10C07BD4621
:1017A00080BC704790B583B000AF4FF00003FB7171
:1017B0004FF01803BB7124E04FF01803BB71BA79E6
:1017C000FB79D318BB71FC7940F2AD03C2F2000380
:1017D0001A78BB79104619464FF000024FF000030B
:1017E00000F00AFA03461A4607F108010B1903F83C
:1017F000082C42F21070FFF777FAFB7903F101032E
:10180000FB71FB79052BD7D97B78DBB25BB24FEA52
:1018100003239AB23B78DBB25BB29BB213439AB21A
:1018200040F25433C2F200031A80FB784FEA0323DC
:101830009AB2BB7813439AB240F29803C2F2000303
:101840001A807B794FEA03239AB23B7913439AB209
:1018500040F23833C2F200031A8040F29003C2F221
:1018600000031B78002B3BD040F25433C2F200033C
:101870001B889AB240F2B403C2F200031B889BB2E9
:10188000D31A9BB29AB240F25433C2F200031A80C8
:1018900040F29803C2F200031B889AB240F2B403EC
:1018A000C2F200035B889BB2D31A9BB29AB240F299
:1018B0009803C2F200031A8040F23833C2F20003E8
:1018C0001B889AB240F2B403C2F200039B889BB219
:1018D000D31A9BB29AB240F23833C2F200031A8094
:1018E00007F10C07BD4690BD90B583B000AF4FF037
:1018F0000003FB714FF02803BB7120E04FF0280379
:10190000BB71BA79FB79D318BB71FC7940F2AD0396
:10191000C2F200031A78BB79104619464FF0000254
:101920004FF0000300F068F903461A4607F108017A
:101930000B1903F8082CFB7903F10103FB71FB7908
:10194000052BDBD97B784FEA03239AB23B7813430C
:101950009AB240F2A603C2F200031A80FB784FEA63
:1019600003239AB2BB7813439AB240F25633C2F2C1
:1019700000031A807B794FEA03239AB23B79134321
:101980009AB240F29A03C2F200031A8040F2900326
:10199000C2F200031B78002B3BD040F2A603C2F238
:1019A00000031B889AB240F21433C2F200031B8872
:1019B0009BB2D31A9BB29AB240F2A603C2F20003C2
:1019C0001A8040F25633C2F200031B889AB240F2EA
:1019D0001433C2F200035B889BB2D31A9BB29AB253
:1019E00040F25633C2F200031A8040F29A03C2F268
:1019F00000031B889AB240F21433C2F200039B88A2
:101A00009BB2D31A9BB29AB240F29A03C2F200037D
:101A10001A8007F10C07BD4690BD00BF90B585B098
:101A200000AF78604FF00003FB734FF02803BB73E7
:101A300020E04FF02803BB73BA7BFB7BD318BB734A
:101A4000FC7B40F2AD03C2F200031A78BB7B104668
:101A500019464FF000024FF0000300F0CDF80346A6
:101A60001A4607F110010B1903F8082CFB7B03F150
:101A70000103FB73FB7B052BDBD97B7A4FEA032346
:101A80009AB23B7A13439AB240F2A603C2F2000321
:101A90001A80FB7A4FEA03239AB2BB7A13439AB2B5
:101AA00040F25633C2F200031A807B7B4FEA0323D5
:101AB0009AB23B7B13439AB240F29A03C2F20003FC
:101AC0001A8040F29003C2F200031B78002B3BD037
:101AD00040F2A603C2F200031B889AB240F214330C
:101AE000C2F200031B889BB2D31A9BB29AB240F297
:101AF000A603C2F200031A8040F25633C2F200037A
:101B00001B889AB240F21433C2F200035B889BB286
:101B1000D31A9BB29AB240F25633C2F200031A8033
:101B200040F29A03C2F200031B889AB240F21433C7
:101B3000C2F200039B889BB2D31A9BB29AB240F2C6
:101B40009A03C2F200031A8040F2A603C2F2000315
:101B50001B881BB2184600F069FC07EE900AFDEEE8
:101B6000E77A17EE903A9AB240F2A603C2F2000367
:101B70001A8040F25633C2F200031B881BB218468B
:101B800000F054FC07EE900AFDEEE77A17EE903A6B
:101B90009AB240F25633C2F200031A8040F29A031E
:101BA000C2F200031B881BB2184600F03FFC07EE90
:101BB000900AFDEEE77A17EE903A9AB240F29A0355
:101BC000C2F200031A8040F2A603C2F200031A8890
:101BD0007B681A8040F25633C2F200031A887B6891
:101BE0005A8040F29A03C2F200031A887B689A80F6
:101BF00007F11407BD4690BD80B58AB000AF3A60CA
:101C00000246FA710A46BA717B7145F6F473C0F662
:101C100000035B687B624FF004037B77FB794FEA3C
:101C20004303DBB23B7707E07B6AD3F8183143F418
:101C300000427B6AC3F8182107F11C0345F6F470D3
:101C4000C0F60000194602F073FF0346002BEBD0EC
:101C500042F21070FFF748F84FF000037B76BB7933
:101C60003B7607E07B6AD3F8183143F400427B6A85
:101C7000C3F8182107F1180345F6F470C0F6000008
:101C8000194602F055FF0346002BEBD042F21070CC
:101C9000FFF72AF84FF005037B75FB794FEA430302
:101CA000DBB243F00103DBB23B7507E07B6AD3F89C
:101CB000183143F400427B6AC3F8182107F114037A
:101CC00045F6F470C0F60000194602F031FF0346F5
:101CD000002BEBD042F21070FFF706F84FF0030331
:101CE0007B744FF0FF033B7407E07B6AD3F8183135
:101CF00043F400427B6AC3F8182107F1100345F64C
:101D0000F470C0F60000194602F012FF0346002BE3
:101D1000EBD042F21070FEF7E7FF4FF006037B7343
:101D20004FF0FF033B7307E07B6AD3F8183143F4AD
:101D300000427B6AC3F8182107F10C0345F6F470E2
:101D4000C0F60000194602F0F3FE0346002BEBD06C
:101D500042F21070FEF7C8FF4FF000033B624FF0F5
:101D600000037B8107F10A0345F6F470C0F600001A
:101D7000194602F0B3FE0346002B04D03B6A03F180
:101D800001033B6203E03B6A03F1FF333B6242F233
:101D90001070FEF7A9FF7B89DBB2184607F1280710
:101DA000BD4680BD80B584B000AF0346FB714FF0E7
:101DB0002700FFF75BF80346FB73FA7BFB794FF0D4
:101DC000010101FA03F31A40FB7942FA03F3DBB293
:101DD000184607F11007BD4680BD00BF90B583B01F
:101DE00000AF4FF02803BB714FF00003FB7119E007
:101DF000FC7940F2AC03C2F200031A78BB791046BA
:101E000019464FF000024FF00003FFF7F5FE0346BE
:101E10001A4607F108010B1903F8082CFB7903F1A6
:101E20000103FB71FB79052BE2D97B784FEA032391
:101E30009AB23B7813439AB240F25833C2F200038D
:101E40001A80FB784FEA03239AB2BB7813439AB205
:101E500040F2A403C2F200031A807B794FEA032305
:101E60009AB23B7913439AB240F24033C2F2000374
:101E70001A8007F10C07BD4690BD00BF80B58AB03F
:101E800000AF0346FB714FF000033B834FF00003AC
:101E90007B834FF00003BB834FF000033B824FF086
:101EA00000037B824FF00003BB824FF000037B6294
:101EB0007CE000BF7B6ADBB21846FFF773FF034686
:101EC000002BF7D0FFF78AFF4FF000033B814FF064
:101ED00000037B814FF00003BB8140F25833C2F214
:101EE00000031B883B8140F2A403C2F200031B885D
:101EF0007B8140F24033C2F200031B88BB814FF06C
:101F000000033B624BE03B6A4FEA430307F12801C1
:101F1000CB1833F8202C3B6A4FEA430307F1280122
:101F2000CB1833F8183C12B21BB29A420FDD3B6A51
:101F30004FEA430307F12802D31833F8202C3B6AF9
:101F40004FEA430307F12801CB1823F8182C3B6A0A
:101F50004FEA430307F12802D31833F8202C3B6AD9
:101F60004FEA430307F12801CB1833F8103C12B2B3
:101F70001BB29A420FDA3B6A4FEA430307F1280289
:101F8000D31833F8202C3B6A4FEA430307F12801AA
:101F9000CB1823F8102C3B6A03F101033B623B6A28
:101FA000022BB0DD7B6A03F101037B627B6A7F2B2E
:101FB0007FF77FAF4FF000033B6249E03B6A4FEA97
:101FC000430307F12802D31833F8183C1AB23B6ACE
:101FD0004FEA430307F12801CB1833F8103C1BB23A
:101FE000D3184FEAD372D3184FEA630399B240F281
:101FF0005C03C2F200033A6A23F8121040F25C0359
:10200000C2F200033A6A33F812301BB2184600F0ED
:1020100027F8024640F26033C2F20003396A4FEA01
:1020200081015B181A60FB79002B0DD03B6ADAB294
:1020300040F25C03C2F20003396A33F811301BB27C
:102040001046194600F036F83B6A03F101033B6283
:102050003B6A022BB2DD07F12807BD4680BD00BFF9
:1020600080B582B000AF0346FB80B7F9063007EEBB
:10207000903AB8EEE77A40F25033C2F20003D3ED63
:10208000007A67EE277A17EE900A03F0F9FB024612
:102090000B461046194603F0AFF902460B461046B0
:1020A000194603F003FF0346184607F10807BD462B
:1020B00080BD00BF80B584B000AF02460B46FA7108
:1020C000BB80FB79022B21D8B7F9043003F47F439E
:1020D0004FEA2323FB73BB88BB73FB794FEA4303AF
:1020E000DBB203F10503DAB2BB7B10461946FFF7FA
:1020F00095F9FB7903F10303DBB24FEA4303DAB24C
:10210000FB7B10461946FFF789F900E000BF07F195
:102110001007BD4680BD00BF80B582B000AF4FF054
:102120002700FEF7C1FE0346FB71FB7903F00103B4
:10213000DBB2184607F10807BD4680BD80B582B006
:1021400000AF4FF02700FEF7AFFE0346FB71FB79AF
:1021500003F002034FEA6303DBB2184607F10807F6
:10216000BD4680BD80B582B000AF4FF02700FEF7BE
:102170009BFE0346FB71FB7903F004034FEAA303C4
:10218000DBB2184607F10807BD4680BD80B586B0B2
:1021900000AF0346FB71FB7903F11403DBB24FEA96
:1021A00043037B754FF000033B611DE03B69DAB2EE
:1021B0007B7DD3187B7540F2AD03C2F200031A7821
:1021C0007B7D104619464FF000024FF00003FFF7E9
:1021D00013FD03461A4607F10C013B69CB181A7030
:1021E0003B6903F101033B613B69012BDEDD7B7B36
:1021F0004FEA03239AB23B7B1343FB8240F29003E6
:10220000C2F200031B78002B0BD0FA8AF97940F256
:102210001433C2F2000333F811309BB2D31A9BB2CD
:10222000FB82FB8A1BB2184607F11807BD4680BD2A
:1022300080B586B000AF0346FB714FF000037B61B1
:10224000FB7903F11403DBB24FEA4303FB741DE097
:102250007B69DAB2FB7CD318FB7440F2AC03C2F2A8
:1022600000031A78FB7C104619464FF000024FF02D
:102270000003FFF7C1FC03461A4607F10C017B6916
:10228000CB181A707B6903F101037B617B69012B19
:10229000DEDD7B7B4FEA03239AB23B7B13433B8219
:1022A0003B8A1BB2184607F11807BD4680BD00BF28
:1022B00080B582B000AF4FF000037B604FF0150394
:1022C000FB701CE07B68DAB2FB78D318FB7040F23D
:1022D000AD03C2F200031A78FB78104619464FF09E
:1022E00000024FF00003FFF787FC03461A46394609
:1022F0007B68CB181A707B6803F101037B607B68F5
:10230000012BDFDD7B784FEA03239AB23B7813433E
:102310009AB240F29C03C2F200031A8040F29C037E
:10232000C2F200031B881BB2184607F10807BD461E
:1023300080BD00BF80B586B000AF0346FB714FF093
:1023400000033B61FB7903F10C03DBB24FEA43036B
:10235000FB731DE03B69DAB2FB7BD318FB7340F2E1
:10236000AD03C2F200031A78FB7B104619464FF00A
:1023700000024FF00003FFF73FFC03461A4607F147
:102380000C013B69CB181A703B6903F101033B61F7
:102390003B69012BDEDD7B7B4FEA03239AB23B7B5B
:1023A0001343FB8240F29003C2F200031B78002B20
:1023B0000BD0FA8AF97940F2B403C2F2000333F881
:1023C00011309BB2D31A9BB2FB82FB8A1BB2184618
:1023D00007F11807BD4680BD80B582B000AF034647
:1023E000FB80B7F9063007EE903AB8EEE77A40F294
:1023F0003C33C2F20003D3ED007A67EE277A17EE82
:10240000900A03F03DFA02460B461046194603F0C7
:1024100083F802460B461046194603F047FD034673
:10242000184607F10807BD4680BD00BF80B582B0E1
:1024300000AF0346FB80B7F9063007EE903AB8EEDE
:10244000E77A40F2A803C2F20003D3ED007A67EE08
:10245000277A17EE900A03F013FA02460B4610464D
:10246000194603F059F802460B461046194603F088
:102470001DFD0346184607F10807BD4680BD00BF95
:1024800080B584B000AF0346FB804FF01000FEF72C
:102490000BFD0346FB73FB7B23F01803FB73FB88E8
:1024A000B3F5FA7F03D0B3F5FA6F0CD017E0FB7BDE
:1024B00043F00803FB7340F26803C2F200034FF4D9
:1024C000FA72DA8013E0FB7B43F01803FB7340F2EF
:1024D0006803C2F200034FF4FA62DA8007E040F2C8
:1024E0006803C2F200034FF0F502DA8000BFFB7B05
:1024F0004FF010001946FEF7C7FDFEF767FB07F126
:102500001007BD4680BD00BF80B584B000AF034654
:10251000FB714FF02000FEF7C7FC0346FB73FB7B0B
:1025200023F01803FB73FB79082B0FD0102B19D065
:10253000042B23D1FB7B43F01003FB7340F26803B1
:10254000C2F200034FF00402DA751FE0FB7B43F098
:102550001803FB7340F26803C2F200034FF0080255
:10256000DA7513E0FB7B43F00803FB7340F268036A
:10257000C2F200034FF01002DA7507E040F2680380
:10258000C2F200034FF00202DA7500BFFB7B4FF08E
:1025900020001946FEF778FDFEF732FB07F1100721
:1025A000BD4680BD80B584B000AF0346FB714FF0DF
:1025B0002100FEF75BFC0346FB73FB7B23F060030B
:1025C000FB73FB790C2B10D0102B1BD0082B26D1C2
:1025D000FB7B43F02003FB7340F26803C2F200036D
:1025E0004FF0080283F8202022E0FB7B43F04003F9
:1025F000FB7340F26803C2F200034FF00C0283F851
:10260000202015E0FB7B43F06003FB7340F268037E
:10261000C2F200034FF0100283F8202008E040F2DD
:102620006803C2F200034FF0040283F8202000BFC9
:10263000FB7B4FF021001946FEF7F0FEFEF7FAFA99
:1026400007F11007BD4680BD80B584B000AF0346DA
:10265000FB71FB7903F00703002B20D04FF0100033
:10266000FEF722FC0346FB73FB7B03F01F03FB73A7
:10267000FB794FEA4313DAB2FB7B1343DBB2FB7304
:10268000FB7903F00703DAB240F26803C2F20003F9
:102690001A72FB7B4FF010001946FEF7F5FC07F1AC
:1026A0001007BD4680BD00BF80B584B000AF0346B3
:1026B000FB71FB7903F00703002B20D04FF02000C3
:1026C000FEF7F2FB0346FB73FB7B03F01F03FB7378
:1026D000FB794FEA4313DAB2FB7B1343DBB2FB73A4
:1026E000FB7903F00703DAB240F26803C2F2000399
:1026F0001A76FB7B4FF020001946FEF7C5FC07F168
:102700001007BD4680BD00BF80B584B000AF034652
:10271000FB714FF02000FEF7A9FB0346FB73FB7B28
:1027200023F01C03FB73FB7903F007034FEA8303D9
:10273000DAB2FB7B1343DBB2FB73FB7903F00703D5
:10274000DAB240F26803C2F2000383F82120FB7B77
:102750004FF020001946FEF761FE07F11007BD4655
:1027600080BD00BF80B584B000AFF871B9717A71D7
:102770003B71FA79BB7910461946FEF785FC4FF09C
:102780002200FEF791FB0346FB737B79002B04D0FC
:10279000FB7B43F02003FB7303E0FB7B23F0200370
:1027A000FB733B79002B04D0FB7B23F01003FB73FE
:1027B00003E0FB7B43F01003FB73FB7B4FF0220035
:1027C0001946FEF761FC07F11007BD4680BD00BF4A
:1027D00080B584B000AF13460246FA710A46BA715A
:1027E0007B714FF00003FB73BB7903F07F03FB7336
:1027F0007B79002B03D0FB7B63F07F03FB73FB7BB8
:102800004FF004001946FEF73FFCFB794FF005003E
:102810001946FEF739FC07F11007BD4680BD00BF21
:1028200080B582B000AF4FF01700FEF73DFB0346C6
:10283000FB71FB7903F01003FB71FB79184607F17C
:102840000807BD4680BD00BF80B584B000AF02461A
:102850000B46FA71BB71FB79FB73BB79002B03D07C
:10286000FB7B63F07F03FB73FB7B4FF00600194695
:10287000FEF70AFC07F11007BD4680BD80B584B0A5
:1028800000AFF871B9717A713B71BB7903F107033D
:10289000DAB2FB7910461946FEF7F6FB7B7903F0B6
:1028A0007F03FB733B79002B03D0FB7B63F07F033B
:1028B000FB73FB7B4FF00A001946FEF7E5FB07F1BF
:1028C0001007BD4680BD00BF80B582B000AF4FF09D
:1028D0002600FEF7E9FA0346FB71FB7903F040039B
:1028E000002B04D0FB7903F03F03DBB201E04FF093
:1028F0000003184607F10807BD4680BD80B584B0C7
:1029000000AF13460246FA710A46BA717B71FB7931
:10291000FB73BB79002B03D0FB7B63F07F03FB735E
:102920007B79002B03D0FB7B43F04003FB73FB7BE5
:102930004FF030001946FEF7A7FB07F11007BD4620
:1029400080BD00BF80B584B000AFF88079713A7166
:10295000FB70FB8803F4FE434FEA2323DBB23B7397
:10296000FB88DBB27B737B794FEA4303DBB203F175
:102970003103DAB23B7B10461946FEF785FB7B79C3
:1029800003F11903DBB24FEA4303DAB27B7B104653
:102990001946FEF779FB3B7903F07F03FB73FB7865
:1029A000002B03D0FB7B63F07F03FB73FB7B4FF0BB
:1029B00037001946FEF768FB07F11007BD4680BDDA
:1029C00080B582B000AF4FF01400FEF76DFA0346F9
:1029D000FB71FB7903F04003002B04D0FB7903F07B
:1029E0003F03DBB201E04FF00003184607F1080790
:1029F000BD4680BD80B584B000AF13460246FA7173
:102A00000A46BA717B71FB7923F01F03FB73BB7914
:102A1000002B03D1FB7B43F00403FB737B79002B7A
:102A200003D1FB7B43F00203FB73FB79002B03D044
:102A3000FB7B43F00103FB73FB7B4FF03000194637
:102A4000FEF7ECFC07F11007BD4680BD80B582B0F3
:102A500000AF0346FB80FB8803F4FE434FEA2323C9
:102A6000DBB24FF033001946FEF7D8FCFB88DBB22F
:102A70004FF032001946FEF7D1FC07F10807BD46BA
:102A800080BD00BF80B582B000AF4FF03000FEF7D0
:102A9000EDF90346FB71FB7903F00103002B04D031
:102AA000FB7923F00103DBB201E04FF0000318468D
:102AB00007F10807BD4680BD80B584B000AF03466E
:102AC000FB714FF02300FEF7EFF90346FB73FB7930
:102AD000002B04D0FB7B43F04003FB7303E0FB7B44
:102AE00023F04003FB73FB7B4FF023001946FEF7F6
:102AF000CBFA07F11007BD4680BD00BF80B500AF1F
:102B00004FF02F00FEF7D0F9034603F03F03DBB28E
:102B1000184680BD80B584B000AF78607B68FB60EC
:102B200040F20403C2F200031B78DBB2012B40F039
:102B3000F98040F22803C2F200031B78002B47D132
:102B4000FB68997CFB681A7D40F22903C2F20003FE
:102B50001B78D318DAB240F22903C2F200031B78C3
:102B6000F868C318084611461A4600F0DFF840F22C
:102B70002903C2F200031B7803F10103DAB240F229
:102B80002903C2F200031A7040F22903C2F20003C3
:102B90001B78062B40F0C68040F22803C2F20003E7
:102BA0001B7803F10103DAB240F22803C2F20003FA
:102BB0001A7040F22903C2F200034FF000021A70AB
:102BC00040F22C03C2F200034FF000021A60A9E0A9
:102BD00040F22803C2F200031B78012B4DD1FB68A1
:102BE000997CFB685A7D40F22903C2F200031B78EE
:102BF000D318DAB240F22903C2F200031B7803F1C2
:102C00000603F868C318084611461A4600F08EF805
:102C100040F22903C2F200031B7803F10103DAB288
:102C200040F22903C2F200031A7040F22903C2F2F3
:102C300000031B78062B75D140F22803C2F2000373
:102C40001B7803F10103DAB240F22803C2F2000359
:102C50001A7040F22903C2F200034FF000021A700A
:102C600040F22C03C2F200031B6803F1010240F2A0
:102C70002C03C2F200031A6054E040F22803C2F2AF
:102C800000031B78022B4DD1FB68D97CFB689A7D31
:102C900040F22903C2F200031B78D318DAB240F2E3
:102CA0002903C2F200031B7803F10C03F868C31870
:102CB000084611461A4600F039F840F22903C2F2DC
:102CC00000031B7803F10103DAB240F22903C2F2D8
:102CD00000031A7040F22903C2F200031B78062B8E
:102CE00020D140F20403C2F200034FF000021A7038
:102CF00040F22803C2F200034FF000021A7040F2C3
:102D00002903C2F200034FF000021A7040F22C03B4
:102D1000C2F200031B6803F1010240F22C03C2F26D
:102D200000031A6007F11007BD4680BD80B58AB068
:102D300000AF0B463A600246FA71BB71FDF7DAFA52
:102D40004FF0040387F82130FB794FEA4303DBB2ED
:102D500087F8203001E0FDF7B7FA07F1200345F6C8
:102D6000F470C0F60000194601F0E2FE0346002BA5
:102D7000F1D04FF06400FDF7B7FF4FF000037B7711
:102D8000BB793B7701E0FDF79FFA07F11C0345F69D
:102D9000F470C0F60000194601F0CAFE0346002B8D
:102DA000F1D04FF06400FDF79FFF4FF005037B76F5
:102DB000FB794FEA4303DBB243F00103DBB23B761E
:102DC00001E0FDF781FA07F1180345F6F470C0F64B
:102DD0000000194601F0ACFE0346002BF1D04FF085
:102DE0006400FDF781FF4FF003037B754FF0FF0395
:102DF0003B7501E0FDF768FA07F1140345F6F4703E
:102E0000C0F60000194601F093FE0346002BF1D0F6
:102E10004FF06400FDF768FF4FF006037B744FF03E
:102E2000FF033B7401E0FDF74FFA07F1100345F68D
:102E3000F470C0F60000194601F07AFE0346002B3C
:102E4000F1D04FF06400FDF74FFF4FF000037B62BD
:102E50004FF00003FB8107F10E0345F6F470C0F656
:102E60000000194601F03AFE0346002B04D07B6AAD
:102E700003F101037B6203E07B6A03F1FF337B62B2
:102E80004FF06400FDF730FFFB89DAB23B681A703F
:102E900007F12807BD4680BD80B500AF01F04CFFAB
:102EA000FDF732FC4FF00100FEF71AFBFDF75AFA6E
:102EB0004FF00000FDF776FAFAE700BF80B584B066
:102EC00000AFF8607A603B600B46FB72FB7AF868F3
:102ED00019467A683B6800F0DDFF0246FB691A601C
:102EE000FB691B68002B07D0FB691B68184601F0C3
:102EF000A1F80246BB691A6007F11007BD4680BD04
:102F000080B582B000AF786039603B681B68002BE9
:102F100014D03B681B68184601F0E6F802467B684F
:102F20001A607B681B68002B08D13B681B68184639
:102F300001F022F93B684FF000021A6007F1080720
:102F4000BD4680BDFEE7FEE7FEE7FEE7FEE7FEE7E3
:102F5000FEE7FEE7FEE7FEE7FEE7FEE7FEE7FEE749
:102F6000FEE7FEE7FEE7FEE7FEE7FEE7FEE7FEE739
:102F7000FEE7FEE7FEE7FEE7FEE7FEE7FEE7FEE729
:102F8000FEE7FEE7FEE7FEE7FEE7FEE7FEE7FEE719
:102F9000FEE7FEE7FEE7FEE7FEE7FEE7FEE7FEE709
:102FA000FEE7FEE7FEE7FEE7FEE7FEE7FEE7FEE7F9
:102FB000FEE7FEE7FEE7FEE7FEE7FEE7FEE7FEE7E9
:102FC000FEE7FEE7FEE7FEE7FEE7FEE7FEE7FEE7D9
:102FD000FEE7FEE7FEE7FEE7FEE7FEE7FEE7FEE7C9
:102FE000FEE7FEE7FEE7FEE7FEE7FEE7FEE7FEE7B9
:102FF000FEE7FEE7FEE7FEE7FEE7FEE7FEE7FEE7A9
:10300000FEE7FEE7FEE7FEE7FEE7FEE7FEE7FEE798
:10301000FEE7FEE7FEE7FEE7FEE7FEE7FEE7FEE788
:103020004FF001007047000080B582B000AF4FF450
:103030006D43CEF200034FF46D42CEF20002D2F89F
:10304000882042F47002C3F888204FF46D43CEF21A
:1030500000034FF46D42CEF20002526922F00802E2
:103060005A614FF40043C5F200034FF40042C5F229
:103070000002526822F001025A604FF48053C5F6F4
:10308000000303F5805303F114031B687B607B6826
:1030900023F00F037B607B6843F003037B604FF4F6
:1030A0008053C5F600037A6803F5805303F11403D7
:1030B0001A6000F0ABF800F005F807F10807BD460C
:1030C00080BD00BF80B485B000AF4FF48C43C5F223
:1030D0000003DB68B3F5803F40F0898044F2107351
:1030E000C5F200031B6803F00403002B00F0888086
:1030F00044F21073C5F200039B6803F070634FEA5B
:10310000136303F10103FB6044F21073C5F2000383
:103110009B6803F4FE434FEA132303F10103BB60F2
:1031200044F21073C5F200039B6803F4FE034FEAF8
:10313000134303F101037B6044F21073C5F20003F3
:10314000DB6803F00103002B28D04FF45853C0F282
:103150006E13FA68B3FBF2F3BA6802FB03F33B6049
:103160003A687B68B2FBF3F240F21803C2F2000344
:103170001A6040F21803C2F200031A684FF48C433D
:10318000C5F20003DB68DBB203F10103B2FBF3F22B
:1031900040F21803C2F200031A6031E04FF4D85332
:1031A000C0F2B703FA68B3FBF2F3BA6802FB03F3A9
:1031B0003B603A687B68B2FBF3F240F21803C2F25C
:1031C00000031A6040F21803C2F200031A684FF4B9
:1031D0008C43C5F20003DB68DBB203F10103B2FBF1
:1031E000F3F240F21803C2F200031A6008E040F262
:1031F0001803C2F200034FF45852C0F26E121A6064
:1032000007F11407BD4680BC704700BF80B582B08F
:1032100000AF02F0E7F80346002B00F0558244F2BD
:103220001073C5F200035A684FF00203C0F20103A5
:103230001340002B0DD044F21073C5F2000344F28A
:103240001072C5F20002526822F4803222F00202AB
:103250005A604FF48E43C5F200035B6803F03003FD
:10326000002B72D04FF48E43C5F200034FF48E4210
:10327000C5F20002526822F0F0025A604FF48E4309
:10328000C5F200034FF48E42C5F20002526842F4C8
:1032900000325A6044F21073C5F2000344F2107217
:1032A000C5F20002D26822F00102DA6044F2107323
:1032B000C5F2000344F21072C5F20002526822F413
:1032C00000325A604EF21003CEF2000344F6A332ED
:1032D000C0F24C025A604EF21003CEF200034FF0DF
:1032E00000029A604EF21003CEF200034FF0050286
:1032F0001A6044F21073C5F200031B6803F4607394
:10330000B3F5607F08D04EF21003CEF200039A6846
:1033100040F2F3139A42ECD84EF21003CEF20003BF
:103320004EF21002CEF20002126822F001021A6080
:1033300044F21073C5F200031B6803F46073B3F525
:10334000607F02D04FF00003C0E144F21073C5F279
:1033500000031B6803F00403002B40F0B5814FF419
:103360008C43C5F20003DB6803F48033002B0BD0E1
:103370004FF48C43C5F200034FF48C42C5F20002B7
:10338000D26822F48032DA604FF46053C1F69C4375
:103390007B607A6849F68173C1F25E63A3FB021316
:1033A0004FEA535303F1FF333B6044F21073C5F20D
:1033B000000344F21072C5F20002526842F00102AA
:1033C0005A6044F21073C5F2000344F21072C5F261
:1033D0000002526842F010025A6044F21072C5F2C4
:1033E00000023B684FEA034144F60173C0F2001348
:1033F0000B43936044F21073C5F2000344F2107261
:10340000C5F20002526842F040025A6044F2107362
:10341000C5F2000344F21072C5F20002526822F0B5
:1034200010025A6044F21073C5F2000344F21072A5
:10343000C5F20002526842F480225A604EF2100334
:10344000CEF2000344F6A332C0F24C025A604EF2B0
:103450001003CEF200034FF000029A604EF2100308
:10346000CEF200034FF005021A6000BF44F2107361
:10347000C5F200031B6803F00403002B08D14EF2D1
:103480001003CEF200039A6840F2F3139A42EDD88B
:103490004EF21003CEF200034EF21002CEF2000202
:1034A000126822F001021A6044F21073C5F20003A0
:1034B0001B6803F00403002B4ED044F21073C5F2D6
:1034C000000344F21072C5F20002526822F00102B9
:1034D0005A604FF48C43C5F200034FF000021A61AA
:1034E0004FF48C43C5F200034FF000025A614FF4D1
:1034F0008C43C5F200034FF000021A624FF48C4374
:10350000C5F200034FF48C42C5F20002D26842F4C7
:103510008032DA6044F21073C5F2000344F2107294
:10352000C5F20002526822F040025A604EF21003C7
:10353000CEF2000340F245525A604EF21003CEF232
:1035400000034FF000029A604EF21003CEF2000327
:103550004FF005021A6002E04FF00003B6E04EF2B1
:103560001003CEF200039B68632BF8D84EF21003D1
:10357000CEF200034EF21002CEF20002126822F0E8
:1035800001021A604FF46053C1F69C437B607B6874
:103590004FEA132245F2C743C0F21E13A3FB0213E6
:1035A0004FEA932303F1FF333B6044F21072C5F2FC
:1035B00000023B684FEA034144F60173C0F2001376
:1035C0000B4393604EF21003CEF2000340F61B4211
:1035D0005A604EF21003CEF200034FF000029A60E0
:1035E0004EF21003CEF200034FF005021A6000BF46
:1035F0004EF21003CEF200039B68632BF8D84EF214
:103600001003CEF200034EF21002CEF20002126856
:1036100022F001021A604FF46053C1F69C437B60B4
:103620007B684FEAD3124EF22F33C0F2BE03A3FBE6
:1036300002134FEAD32303F1FF333B6044F21072CD
:10364000C5F200023B684FEA034144F60173C0F241
:1036500000130B4393604EF21003CEF2000341F2CD
:1036600023325A604EF21003CEF200034FF00002F4
:103670009A604EF21003CEF200034FF005021A607A
:1036800000BF4EF21003CEF200039B68632BF8D804
:103690004EF21003CEF200034EF21002CEF2000200
:1036A000126822F001021A6044F21073C5F200039E
:1036B00044F60172C0F203129A6044F26013C5F23C
:1036C00000034FF00502DA604FF00103184607F1DE
:1036D0000807BD4680BD00BF80B485B000AFF8606C
:1036E000B9607A604FF0FF33184607F11407BD4602
:1036F00080BC704780B485B000AFF860B9607A6074
:103700004FF0FF33184607F11407BD4680BC7047E1
:1037100080B485B000AFF860B9607A604FF0000304
:10372000184607F11407BD4680BC704780B485B0C9
:1037300000AFF860B9607A604FF0FF33184607F1C8
:103740001407BD4680BC704780B400AF4FF0FF3314
:103750001846BD4680BC704780B483B000AF786027
:1037600039603B68002B02D04FF0FF3301E06FF06F
:103770000103184607F10C07BD4680BC704700BF27
:1037800080B483B000AF786039607A683B689A4251
:1037900002D14FF0FF3301E06FF00103184607F14B
:1037A0000C07BD4680BC704780B483B000AF786022
:1037B0004FF0FF33184607F10C07BD4680BC704739
:1037C00080B487B000AF78604FF69403C0F2000376
:1037D0007B6140F23403C2F200031B68002B14D15A
:1037E00040F23403C2F2000340F26C72C2F20002F3
:1037F0001A6040F23403C2F200031A687B69D218DF
:1038000040F23803C2F200031A6040F23403C2F2FD
:1038100000031B683B6140F23403C2F200031B68E3
:103820001A467B68D31803F1070323F00703FB60F4
:1038300040F23803C2F200031B68FA689A4202D3CE
:103840004FF0000306E040F23403C2F20003FA68CE
:103850001A603B69184607F11C07BD4680BC7047DB
:1038600080B483B000AF78604FF0FF33184607F1A3
:103870000C07BD4680BC704780B483B000AF786051
:103880004FF0FF33184607F10C07BD4680BC704768
:1038900080B483B000AF786039604FF0FF331846D2
:1038A00007F10C07BD4680BC704700BF80B400AF75
:1038B0004FF0FF331846BD4680BC704780B400AF60
:1038C0004FF0FF331846BD4680BC704780B483B0CC
:1038D00000AF7860FEE700BF80B400AFBD4680BC9B
:1038E000704700BF80B483B000AF78604FF0FF3303
:1038F000184607F10C07BD4680BC704780B400AF86
:103900004FF46D43CEF20003DB6803F4E0634FEA4B
:1039100013231846BD4680BC704700BF80B483B0F7
:1039200000AF03463960FB7197F90730002B10DABE
:103930004FF46D43CEF20003FA7902F00F02A2F1C8
:1039400004013A68D2B24FEA8202D2B25B181A7608
:103950000DE04FF46143CEF2000397F907103A6887
:10396000D2B24FEA8202D2B25B1883F8002307F189
:103970000C07BD4680BC704780B489B000AFF860CA
:10398000B9607A60FB6803F00703FB61FB69C3F170
:103990000703062B28BF0623BB61FB6903F106035F
:1039A000062B03D9FB6903F1FF3301E04FF000035D
:1039B0007B61BB694FF0010202FA03F303F1FF33AD
:1039C0001A46BB681A407B6902FA03F27B694FF022
:1039D000010101FA03F303F1FF3319467B680B4041
:1039E0001343184607F12407BD4680BC704700BF4B
:1039F00080B582B000AF78607B6803F1FF326FF072
:103A00007F439A4202D94FF001031DE04EF21003AA
:103A1000CEF200037A6802F1FF325A604FF0FF30B5
:103A20004FF03F01FFF77AFF4EF21003CEF2000392
:103A30004FF000029A604EF21003CEF200034FF0F6
:103A400007021A604FF00003184607F10807BD4649
:103A500080BD00BF80B487B000AF786040F26C33A7
:103A6000C2F200037A684FEA42129B1803F108037E
:103A70001B68FB6040F23C03C2F200031B68002B92
:103A80000DD17B684FEA431240F26C33C2F200035F
:103A9000D21840F23C03C2F200031A60DEE040F2AA
:103AA0003C03C2F200031B687B61FB683B61D1E011
:103AB0007B699B683A69D31A3B613B69002B80F2B2
:103AC0009C807B69DB69002B2ED07B69DA697B687F
:103AD0004FEA431140F26C33C2F20003CB189361FA
:103AE0007B69DA6940F26C33C2F2000379684FEA0D
:103AF00041115B1803F11C031A6040F26C33C2F2EF
:103B000000037A684FEA42129B1803F118037A699E
:103B10001A607B684FEA431240F26C33C2F2000332
:103B2000D2187B69DA612AE040F23C03C2F200035A
:103B30001A6840F26C33C2F2000379684FEA41110F
:103B40005B1803F118031A6040F23C03C2F2000351
:103B50001A687B684FEA431140F26C33C2F20003EB
:103B6000CB18D3617B684FEA431240F26C33C2F248
:103B70000003D21840F23C03C2F200031A6040F284
:103B80006C33C2F200037A684FEA42129B1803F1C9
:103B900018031B689A683B69D21840F26C33C2F272
:103BA000000379684FEA41115B1803F108031A60BA
:103BB00040F26C33C2F200037A684FEA42129B185B
:103BC00003F118031A6840F26C33C2F200037968FB
:103BD0004FEA41115B1803F118031B68996840F222
:103BE0006C33C2F2000378684FEA40101B1803F1EF
:103BF00008031B68CB1A936030E03B69002B26DB7F
:103C00007B699B69002B22D140F26C33C2F2000326
:103C10007A684FEA42129B1803F11C037A691A6012
:103C20007B684FEA431240F26C33C2F20003D218B1
:103C30007B699A613A6940F26C33C2F20003796899
:103C40004FEA41115B1803F108031A6006E07B6933
:103C50009B697B617B69002B7FF42AAF07F11C070E
:103C6000BD4680BC704700BF80B485B000AF7860AF
:103C70007B684FEA431240F26C33C2F20003D31860
:103C8000FB60FB68DB69002B0BD1FB689B69002B99
:103C900007D140F23C03C2F200034FF000021A6069
:103CA00049E0FB68DB69002B1CD1FB689A6940F294
:103CB0003C03C2F200031A6040F23C03C2F200036C
:103CC0001B684FF00002DA61FB689B69FA68926931
:103CD0009168FA6892688A189A60FB684FF000024F
:103CE0009A6128E0FB689B69002B09D1FB68DB69BE
:103CF0004FF000029A61FB684FF00002DA611AE0AF
:103D0000FB68DB69FA6892699A61FB689B69FA68EB
:103D1000D269DA61FB689B69FA6892699168FA680E
:103D200092688A189A60FB684FF000029A61FB68FB
:103D30004FF00002DA6107F11407BD4680BC7047FE
:103D400080B582B000AF40F23C03C2F200031B68B2
:103D50007B6031E07B681B79002B0FD17B681B688F
:103D60001846FFF781FF7B684FF001025A717B68AC
:103D70001B697A6852691046984717E07B681B797F
:103D8000012B21D17B681B681846FFF76DFF7B680C
:103D9000DA687B689A607B681B681846FFF75AFEF2
:103DA0007B681B697A6852691046984740F23C0369
:103DB000C2F200031B687B607B68002B05D07B6828
:103DC0009B68002BC6D000E000BF07F10807BD4686
:103DD00080BD00BF80B582B000AF40F23C03C2F2AC
:103DE00000031B687B6040F24403C2F200031B68BF
:103DF00003F1010240F24403C2F200031A607B683F
:103E0000002B10D07B689B68012B06D97B689B68D0
:103E100003F1FF327B689A6005E07B684FF0000297
:103E20009A60FFF78DFF07F10807BD4680BD00BF10
:103E300080B582B000AF4FF000037B6040F23C03DE
:103E4000C2F200034FF000021A6001F0B3FA4DF223
:103E5000C040C0F20100FFF7CBFD7860FFF74EFDD8
:103E6000034618464FF00A014FF00002FFF784FDA9
:103E700003464FF0FF301946FFF750FD40F2400374
:103E8000C2F200034FF000021A6007F10807BD46B6
:103E900080BD00BF80B489B000AFF8607A603B603D
:103EA0000B46FB724FF00003FB614FF00003BB6158
:103EB0004FF000037B61FB7A002B05D0FB7A012BCE
:103EC00002D04FF001037B61FB68002B02D14FF061
:103ED00001037B61FB68002B02D14FF001037B6182
:103EE0007B68002B02D14FF001037B617B69002BC3
:103EF00040F098804FF00003BB618FE040F2400338
:103F0000C2F200031A68BB6922FA03F303F001034B
:103F1000002B7FD1BB694FF0010202FA03F240F29D
:103F20004003C2F200031B681A4340F24003C2F28E
:103F300000031A6040F26C33C2F20003BA694FEA20
:103F400042129B18BA691A6040F26C33C2F2000345
:103F5000BA694FEA42129B18FA7A1A7140F26C332E
:103F6000C2F20003BA694FEA42129B184FF00102F5
:103F70005A71FB6803F1010240F26C33C2F2000394
:103F8000B9694FEA41115B1803F108031A6040F266
:103F90006C33C2F20003BA694FEA42129B1803F174
:103FA0000C03FA681A6040F26C33C2F20003BA697B
:103FB0004FEA42129B1803F110037A681A6040F22C
:103FC0006C33C2F20003BA694FEA42129B1803F144
:103FD00014033A681A6040F26C33C2F20003BA6903
:103FE0004FEA42129B1803F11C034FF000021A60C3
:103FF00040F26C33C2F20003BA694FEA42129B18D6
:1040000003F118034FF000021A60BB6903F10103CA
:10401000FB6107E0BB6903F10103BB61BB691F2BB7
:104020007FF66CAFFB69184607F12407BD4680BCDC
:10403000704700BF80B584B000AF78604FF00003D8
:10404000FB607B68202B02D94FF00103FB6040F23C
:104050004003C2F200031A687B6803F1FF3322FABF
:1040600003F303F00103002B02D14FF00103FB60C7
:104070007B6803F1FF3240F26C33C2F200034FEA77
:1040800042129B1803F108031B68002B02D14FF06A
:104090000103FB60FB68002B1FD17B6803F1FF323B
:1040A00040F26C33C2F200034FEA42129B185B7974
:1040B000002B12D07B6803F1FF3240F26C33C2F266
:1040C00000034FEA42129B184FF000025A717B68BE
:1040D00003F1FF331846FFF7BDFCFB68184607F1F4
:1040E0001007BD4680BD00BF80B584B000AF7860CA
:1040F0004FF00003FB607B68202B02D94FF00103D7
:10410000FB6040F24003C2F200031A687B6803F1CF
:10411000FF3322FA03F303F00103002B02D14FF027
:104120000103FB60FB68002B1FD17B6803F1FF32AA
:1041300040F26C33C2F200034FEA42129B185B79E3
:10414000012B12D07B6803F1FF331846FFF78CFD7B
:104150007B6803F1FF3240F26C33C2F200034FEA96
:1041600042129B184FF001025A71FB68184607F182
:104170001007BD4680BD00BF80B584B000AF786039
:104180004FF00003FB607B68202B02D94FF0010346
:10419000FB6040F24003C2F200031A687B6803F13F
:1041A000FF3322FA03F303F00103002B02D14FF097
:1041B0000103FB60FB68002B26D17B6803F1FF3213
:1041C00040F26C33C2F200034FEA42129B185B7953
:1041D000002B05D17B6803F1FF331846FFF744FD40
:1041E0007B6803F1FF334FF0010202FA03F36FEA39
:1041F000030240F24003C2F200031B681A4040F27F
:104200004003C2F200031A60FB68184607F110076A
:10421000BD4680BD80B400AF40F24403C2F200034B
:104220001B681846BD4680BC704700BF80B485B08F
:1042300000AF78607A684DF2C043C0F2010303FB1F
:1042400002F3FB60FB68184607F11407BD4680BC0B
:10425000704700BF80B487B000AF78604FF00003B4
:104260007B614FF000033B614FF48843C5F20003CC
:10427000FB607B684FEA13737B61FB6803F11003FB
:1042800019467A6913464FEA43039B184FEA8303A2
:10429000CB183B617B6823F070423B691A6007F1E1
:1042A0001C07BD4680BC704780B487B000AF786003
:1042B0004FF000037B614FF000033B614FF48843F4
:1042C000C5F20003FB607B684FEA13737B61FB68F8
:1042D00003F1140319467A6913464FEA43039B1806
:1042E0004FEA8303CB183B617B6823F070423B6944
:1042F0001A6007F11C07BD4680BC704780B483B0CC
:1043000000AF4FF48843C5F200037B604FF0000319
:10431000FB707B681B68FB70FB78184607F10C0785
:10432000BD4680BC704700BF80B489B000AF7860E4
:104330004FF00F03FB614FF00003BB614FF0000330
:104340007B614FF000033B614FF48843C5F20003EB
:10435000FB607B684FEA1373BB61FB6803F10C03DE
:104360001946BA6913464FEA43039B184FEA830381
:10437000CB187B617B691A687B68134023F070431C
:104380003B613B69002B03D04FF00103FB6102E06E
:104390004FF00003FB61FB69184607F12407BD4697
:1043A00080BC704780B483B000AF4FF48843C5F23F
:1043B00000037B607B689B6843F001027B689A6026
:1043C00007F10C07BD4680BC704700BF80B400AF4A
:1043D0004FF46D43CEF20003DB6803F4E0634FEA71
:1043E00013231846BD4680BC704700BF80B483B01D
:1043F00000AF0346FB714FF46143CEF2000397F91F
:1044000007204FEA5212F97901F01F014FF0010025
:1044100000FA01F143F8221007F10C07BD4680BCF9
:10442000704700BF80B483B000AF03463960FB71B2
:1044300097F90730002B10DA4FF46D43CEF20003EA
:10444000FA7902F00F02A2F104013A68D2B24FEAFF
:104450008202D2B25B181A760DE04FF46143CEF2BD
:10446000000397F907103A68D2B24FEA8202D2B23B
:104470005B1883F8002307F10C07BD4680BC70472A
:1044800080B489B000AFF860B9607A60FB6803F06F
:104490000703FB61FB69C3F10703062B28BF062353
:1044A000BB61FB6903F10603062B03D9FB6903F12A
:1044B000FF3301E04FF000037B61BB694FF0010265
:1044C00002FA03F303F1FF331A46BB681A407B6913
:1044D00002FA03F27B694FF0010101FA03F303F1E1
:1044E000FF3319467B680B401343184607F1240736
:1044F000BD4680BC704700BF80B582B000AF786019
:104500007B681B78DBB25BB21846FFF76FFF07F1E1
:104510000807BD4680BD00BF80B582B000AF4FF038
:1045200000037B600DE040F21C03C2F200037A68D6
:1045300053F82230184600F00BF87B6803F10103B2
:104540007B607B68002BEED007F10807BD4680BD7D
:1045500090B583B000AF78607B681B78DCB2FFF762
:1045600035FF01467B685B781A467B689B78084676
:1045700011461A46FFF784FF034662B210461946F9
:10458000FFF750FF7B68DB78012B02D17868FFF7DB
:10459000B3FF07F10C07BD4690BD00BF80B586B0E4
:1045A00000AF78604FF000033B614FF00003FB6009
:1045B0007B685B687B617B691B6C23F004027B6911
:1045C0001A647B69DB6843F003027B69DA607B680D
:1045D000996807F1100207F10C03084611461A46C4
:1045E00000F0BAF87B691A69FB684FEA83534FEA17
:1045F0009353134343F400427B691A617B689B68C1
:10460000642B0FD87B695A693B694FEA03414FF02D
:104610000003C0F2FF330B40134343F410527B6995
:104620005A610EE07B695A693B694FEA03414FF0DA
:104630000003C0F2FF330B40134343F4C0427B69D5
:104640005A617B695A6B40F20333C0F23F731343E4
:104650007A6953637B699B6B43F4A0627B699A63BD
:104660007B689B68642B04D87B69DA6B7B69DA63AF
:1046700005E07B69DB6B43F400327B69DA637B68BE
:104680001B7C002B05D07B69DB6B43F480227B69AC
:10469000DA637B685B7C002B05D07B69DB6B43F4C2
:1046A00000227B69DA637B689B7C002B05D07B69E9
:1046B000DB6B43F480127B69DA637B68DB7C002B65
:1046C00005D07B69DB6B43F400127B69DA637B689E
:1046D0001B7D002B05D07B69DB6B43F480027B697B
:1046E000DA637B685B7D002B05D07B69DB6B43F075
:1046F00080727B69DA637B689B7D002B05D07B69C8
:10470000DB6B43F080427B69DA637B69D3F8082175
:104710007B681B7B4FEA032303F47C531A437B69BA
:10472000C3F808217B69D3F80C217B685B7B4FEAD7
:10473000032303F47C53134343F080527B69C3F893
:104740000C217B691B6C43F004027B691A6407F13E
:104750001807BD4680BD00BF80B489B000AFF860C7
:10476000B9607A604FF00003FB61D7ED037AB8EED1
:10477000677ADFED597A67EE277AC7ED047A4FF052
:104780000003BB614FF000037B6197ED047ADFED1E
:10479000537AB4EEE77AF1EE10FA08D89FED507A2A
:1047A000D7ED047AC7EE277AC7ED077A07E09FEDC9
:1047B0004D7AD7ED047AC7EE277AC7ED077A97EDE1
:1047C000077AF7EE007AB4EEE77AF1EE10FA03D842
:1047D0004FF00003BB6115E097ED077AF7EE007A22
:1047E00077EE677AC7ED067A97ED067ADFED3E7AC7
:1047F000B4EEE77AF1EE10FA04DD4FF44043C4F270
:104800007F43BB61D7ED067AFCEEE77ABB68C3ED68
:10481000007A97ED047ADFED317AB4EEE77AF1EEC3
:1048200010FA1FD897ED047AF2EE047A27EE277A71
:10483000DFED2E7A27EE277ADFED2D7A87EE277AC5
:10484000BB68D3ED007AF8EE676AF7EE007A76EE91
:10485000A77A27EE277ADFED277AC7EE277AC7ED0A
:10486000057A1EE097ED047AF3EE097A27EE277AAF
:10487000DFED1E7A27EE277ADFED1D7A87EE277AA5
:10488000BB68D3ED007AF8EE676AF7EE007A76EE51
:10489000A77A27EE277ADFED177AC7EE277AC7EDDA
:1048A000057A97ED057ADFED107AB4EEE77AF1EE4E
:1048B00010FA04DD4FF44043C4F27F437B61D7ED2F
:1048C000057AFCEEE77A7B68C3ED007A07F12407EE
:1048D000BD4680BC704700BF00007A440050C3470B
:1048E0005ED0B24A180D0F4A00C07F4400008044D9
:1048F000002474490000F04280B500AF4FF480708E
:10490000C1F20000FFF7D0FC45F6F470C0F60000DD
:10491000FFF744FE4FF40543C4F602034FF405428B
:10492000C4F60202126C22F4E0621A644FF40543EA
:10493000C4F602034FF40542C4F60202126C1A6474
:104940004FF40543C4F602034FF40542C4F60202D5
:10495000126942F440021A614FF40543C4F602039F
:104960004FF40542C4F60202526842F004025A6053
:104970004FF40543C4F602034FF40542C4F60202A5
:10498000126C22F007021A644FF40543C4F60203C6
:104990004FF40542C4F60202126C1A644FF4054348
:1049A000C4F602034FF40542C4F60202126942F053
:1049B000C0021A614FF40543C4F602034FF40542E6
:1049C000C4F60202526842F001025A6080BD00BF84
:1049D00080B400AFBD4680BC704700BF80B586B0D4
:1049E00000AF786039604FF00003FB604FF00003C8
:1049F000BB607B685B687B614FF004033B617B6954
:104A00001B6C23F004027B691A6407F10C0207F1A6
:104A10000803386811461A46FFF79EFE7B691B693A
:104A200023F47F7323F003037A6913617B691A69A6
:104A3000BB684FEA83534FEA93531A437B691A6169
:104A40007B695A6948F2FF03CFF6004313407A6945
:104A500053613B68642B0FD87B695A69FB684FEA46
:104A600003414FF00003C0F2FF330B40134343F404
:104A700010527B695A610EE07B695A69FB684FEA04
:104A800003414FF00003C0F2FF330B40134343F4E4
:104A9000C0427B695A617B69DB6B23F400327B691E
:104AA000DA633B68642B04D87B69DA6B7B69DA6371
:104AB00005E07B69DB6B43F400327B69DA634FF01E
:104AC00000033B617B691B6C43F004027B691A6441
:104AD0003B69184607F11807BD4680BD80B485B014
:104AE00000AF786039604FF00003FB737B685B6850
:104AF000BB60BB68D3F8143103F008034FEAD3035B
:104B0000002B03D04FF00003FB7309E0BB68D3F820
:104B10001C31DBB21A463B681A804FF00103FB736D
:104B2000FB7B184607F11407BD4680BC704700BFE9
:104B300080B485B000AF786039604FF00003FB733C
:104B40007B685B68BB60BB689B6C03F00203002B57
:104B500003D04FF00003FB7319E0BB68D3F81431A6
:104B600003F480534FEA1333002B03D04FF00003BC
:104B7000FB730CE03B685B784FEA03223B681B78D1
:104B80001A43BB68C3F880214FF00103FB73FB7B22
:104B9000184607F11407BD4680BC704780B487B043
:104BA00000AF78600B46FB704FF002037B614FF063
:104BB00000033B617B685B68FB60FB78042B0DD8CE
:104BC000FB689B6C3B61FB7803F10A034FF0010229
:104BD00002FA03F33A6913403B6135E0FB78062B98
:104BE00007D1FB689B6C3B613B6903F020033B6191
:104BF0002AE0FB78052B07D1FB689B6C3B613B6986
:104C000003F002033B611FE0FB78082B0ED8FB6822
:104C1000D3F814313B61FB78A3F107034FF0010295
:104C200002FA03F33A6913403B610DE0FB68D3F8E5
:104C300014313B61FB7803F1FF334FF0010202FABC
:104C400003F33A6913403B613B69002B02D04FF0FC
:104C500003037B617B69184607F11C07BD4680BCD6
:104C6000704700BF80B485B000AF78600B46FB7022
:104C70007B685B68FB60FB78042B09D8FB7803F149
:104C80000A034FF0010202FA03F2FB68DA6425E03E
:104C9000FB78062B04D1FB684FF02002DA641DE09C
:104CA000FB78052B04D1FB684FF00202DA6415E0B3
:104CB000FB78082B09D8FB78A3F107034FF001021A
:104CC00002FA03F2FB68DA6408E0FB7803F1FF33D1
:104CD0004FF0010202FA03F2FB68DA6407F11407ED
:104CE000BD4680BC704700BF80B485B000AF78601F
:104CF0007B6803F00703FB604FF46D43CEF20003C3
:104D0000DB68BB60BA684FF6FF031340BB60FB680B
:104D10004FEA0322BB68134343F0BF6343F40033FD
:104D2000BB604FF46D43CEF20003BA68DA6007F15E
:104D30001407BD4680BC704780B500AF4FF001003E
:104D4000FFF7D2FF00F0B0F800F034FBFFF770F887
:104D5000FFF7D2FDFFF7E0FB00F008F880BD00BFD1
:104D600080B500AF00F026FB80BD00BF80B487B0E7
:104D700000AF3B464FF000021A6003F104034FF00E
:104D800000021A6003F104034FF000021A6003F1FD
:104D900004034FF000021A6003F104034FF0000215
:104DA0001A6003F104034FF000021A6003F10403D8
:104DB0003A694FF48043C4F602031B6C03F00F03FF
:104DC00013433B614FF48043C4F602034FF4804227
:104DD000C4F60202126C22F00F021A644FF48043F0
:104DE000C4F602034FF48042C4F60202D26922F0F4
:104DF000070242F00102DA614FF48043C4F6020375
:104E00004FF48042C4F60202D2F8082122F0E06298
:104E100022F03F0242F0807242F00202C3F8082101
:104E20004FF48043C4F602034FF48042C4F60202FA
:104E3000D2F80C2122F0E06222F03F0242F08072B0
:104E4000C3F80C214FF48043C4F602033A6902F020
:104E50000F014FF48042C4F60202126C22F00F02DE
:104E60000A431A644FF40543C4F602034FF40542A3
:104E7000C4F60202126922F0B80242F088021A61F6
:104E80004FF40543C4F602034FF40542C4F6020290
:104E9000126922F4380242F408021A6107F11C0771
:104EA000BD4680BC704700BF80B400AFBD4680BC2B
:104EB000704700BF80B485B000AF78604FF000034A
:104EC000FB6007E000BF00BF00BF00BFFB6803F14D
:104ED0000103FB60FA687B689A42F3D307F1140779
:104EE000BD4680BC704700BF80B483B000AF4FF0B8
:104EF00001037B6044F21073C5F200035A684FF05F
:104F00000203C0F201031340002B02D04FF0000354
:104F10007B607B68184607F10C07BD4680BC704774
:104F200080B500AF4FF48443C5F200031B6803F063
:104F30000103002B0BD14FF48443C5F200034FF45F
:104F40008442C5F20002526842F001025A604FF4F6
:104F50008843C5F200031B6803F40073002B0BD0D9
:104F60004FF48843C5F200034FF48842C5F20002B3
:104F7000926842F400729A6044F21073C5F2000322
:104F800044F21072C5F20002526822F480125A6094
:104F90004FF06400FFF78EFF44F21073C5F2000378
:104FA00044F21072C5F20002526842F400225A60C4
:104FB00080BD00BF80B582B000AF4FF001037B60C1
:104FC00044F21073C5F2000344F21072C5F20002FD
:104FD000526822F4803222F002025A604FF48E436B
:104FE000C5F200035B6803F03003002B54D04FF48C
:104FF0008E43C5F200034FF48E42C5F200025268A0
:1050000022F030025A604FF48E43C5F200034FF491
:105010008E42C5F20002526842F440325A6044F2B5
:105020001073C5F2000344F21072C5F20002D26898
:1050300022F00102DA6044F21073C5F2000344F278
:105040001072C5F20002526822F400325A6044F233
:1050500050633B604FF00A00FFF72CFF3B6803F101
:10506000FF333B6044F21073C5F200031B6803F486
:105070006073B3F5607F02D03B68002BEAD144F245
:105080001073C5F200031B6803F46073B3F5607F0F
:1050900002D04FF000037B607B68184607F10807D9
:1050A000BD4680BD80B582B000AF4FF001037B608C
:1050B00044F21073C5F200031B6803F00403002BD5
:1050C00040F0978040F24803C2F200034FF4605270
:1050D000C1F69C421A6040F24803C2F200031A680B
:1050E00049F68173C1F25E63A3FB02134FEA535387
:1050F00003F1FF3240F24C03C2F200031A6044F2A3
:105100001073C5F2000344F21072C5F20002526837
:1051100042F001025A6044F21073C5F2000344F2F7
:105120001072C5F20002526842F010025A6044F256
:105130001073C5F2000340F24C02C2F20002126882
:105140004FEA024242F41C529A6044F21073C5F2D4
:10515000000344F21072C5F20002526842F04002AD
:105160005A6044F21073C5F2000344F21072C5F2A3
:105170000002526822F010025A6044F21073C5F225
:10518000000344F21072C5F20002526842F4802219
:105190005A6044F250633B604FF00A00FFF78AFE0A
:1051A0003B6803F1FF333B6044F21073C5F2000328
:1051B0001B6803F00403002B02D13B68002BEBD1EA
:1051C00044F21073C5F200031B6803F00403002BC4
:1051D0000CD044F21073C5F2000344F21072C5F211
:1051E0000002526822F001025A6002E04FF0000310
:1051F0007B607B68184607F10807BD4680BD00BF8D
:1052000080B582B000AF4FF001037B6044F21073B1
:10521000C5F2000344F21072C5F20002526822F097
:1052200040025A6040F24803C2F200034FF4605259
:10523000C1F69C421A604FF06400FFF73BFE40F25B
:105240004803C2F200031B684FEA132245F2C7432A
:10525000C0F21E13A3FB02134FEA932303F1FF32A4
:1052600040F24C03C2F200031A6044F21073C5F21C
:10527000000340F24C02C2F2000212684FEA0242FE
:1052800042F41C529A604FF06400FFF713FE40F2A4
:105290004803C2F200031B684FEAD3124EF22F33C9
:1052A000C0F2BE03A3FB02134FEAD32303F1FF3284
:1052B00040F24C03C2F200031A6044F21073C5F2CC
:1052C000000340F24C02C2F2000212684FEA0242AE
:1052D00042F41C529A604FF09600FFF7EBFD44F247
:1052E0001073C5F200034FF41C52C0F203029A601F
:1052F00044F21073C5F200039B6803F070634FEA39
:105300001363002B1ED144F21073C5F200039B6897
:1053100003F4FE434FEA1323272B13D144F21073F7
:10532000C5F200039B6803F07F03002B0AD144F20F
:105330001073C5F200039B6803F4FE034FEA1343A6
:10534000032B02D04FF000037B6044F26013C5F2E0
:1053500000034FF00502DA607B68184607F1080782
:10536000BD4680BD80B582B000AF4FF001037B60C9
:10537000FFF7D6FD4FF06400FFF79CFDFFF71AFE24
:105380007860FFF78FFE78604FF48C43C5F200031E
:105390004FF48C42C5F20002D26842F48032DA60E7
:1053A000FFF72EFF78607B68184607F10807BD46B7
:1053B00080BD00BF80B582B000AF4FF000037B60BE
:1053C000FFF792FD0346002B05D1FFF7CBFF034605
:1053D0007A6813437B60FDF775FE07F10807BD4649
:1053E00080BD00BF80B400AF4FF000031846BD463B
:1053F00080BC7047000000002DE9F84FC1F30A5946
:10540000A9F2FF36132E02460B4604460D460F4600
:105410008A46804627DC002E59DB4FF6FF74C0F227
:105420000F0444FA06F404EA0105054317D038A333
:10543000D3E9002300F0C6F80022002300F004FDA9
:1054400058B1002F05DD4FF4801343FA06F607EB41
:10545000060A2AEA04074FF000083B464246104677
:105460001946BDE8F88F332E07DDB6F5806FF6D10B
:1054700000F0A8F802460B46F1E7A9F2134C4FF0F2
:10548000FF3B2BFA0CFB1BEA000FE8D020A3D3E96B
:10549000002300F097F80022002300F0D5FC00283C
:1054A000DBD0002D0DDD142E09D0C9F5866901244D
:1054B00009F1030904FA09F010EB080401D30AF119
:1054C000010A24EA0B0857463B464246C7E710A3A9
:1054D000D3E9002300F076F80022002300F0B4FCAA
:1054E0000028BAD0002D0BDB002144EA05028A42D5
:1054F000C3F6F07118BF4FF0000818BF0F46ACE7B5
:105500004FF000084FF00047A7E700BFAFF300805F
:105510009C7500883CE4377EF8B5C1F30A57A7F2C2
:10552000FF35132D02460B4604460E4616DC002DB1
:1055300035DB4FF6FF70C0F20F0040FA05F008426D
:105540002AD04FF4002444FA05F5AE1926EA0006E5
:1055500000243346224610461946F8BD332D07DD98
:10556000B5F5806FF7D100F02DF802460B46F2E753
:10557000A7F213414FF0FF3020FA01F11142EAD0B7
:10558000C7F586670123BA1C03FA02F73C1928BF46
:10559000F61824EA0104DCE7002AD2D1DBE76B1C11
:1055A00001F0004601D00024D3E746F07F5646F4D0
:1055B00040160024CDE700BF81F0004102E000BFAB
:1055C00083F0004330B54FEA41044FEA430594EAC3
:1055D000050F08BF90EA020F1FBF54EA000C55EAFE
:1055E000020C7FEA645C7FEA655C00F0E2804FEACF
:1055F0005454D4EB5555B8BF6D420CDD2C4480EAB1
:10560000020281EA030382EA000083EA010180EAE0
:10561000020281EA0303362D88BF30BD11F0004F2E
:105620004FEA01314FF4801C4CEA113102D0404264
:1056300061EB410113F0004F4FEA03334CEA13339F
:1056400002D0524263EB430394EA050F00F0A780B7
:10565000A4F10104D5F1200E0DDB02FA0EFC22FAB2
:1056600005F2801841F1000103FA0EF2801843FAA6
:1056700005F359410EE0A5F120050EF1200E012A97
:1056800003FA0EFC28BF4CF0020C43FA05F3C018D5
:1056900051EBE37101F0004507D54FF0000EDCF14E
:1056A000000C7EEB00006EEB0101B1F5801F1BD3F7
:1056B000B1F5001F0CD349085FEA30004FEA3C0CFB
:1056C00004F101044FEA445212F5800F80F09A80F1
:1056D000BCF1004F08BF5FEA500C50F1000041EBF5
:1056E000045141EA050130BD5FEA4C0C404141EBF9
:1056F000010111F4801FA4F10104E9D191F0000F20
:1057000004BF01460020B1FA81F308BF2033A3F1A2
:105710000B03B3F120020CDA0C3208DD02F1140C99
:10572000C2F10C0201FA0CF021FA02F10CE002F1D4
:105730001402D8BFC2F1200C01FA02F120FA0CFCCD
:10574000DCBF41EA0C019040E41AA2BF01EB045116
:10575000294330BD6FEA04041F3C1CDA0C340EDC14
:1057600004F11404C4F1200220FA04F001FA02F357
:1057700040EA030021FA04F345EA030130BDC4F115
:105780000C04C4F1200220FA02F001FA04F340EA0A
:105790000300294630BD21FA04F0294630BD94F0BB
:1057A000000F83F4801306BF81F480110134013DA2
:1057B0004EE77FEA645C18BF7FEA655C29D094EA13
:1057C000050F08BF90EA020F05D054EA000C04BF91
:1057D0001946104630BD91EA030F1EBF002100207C
:1057E00030BD5FEA545C05D14000494128BF41F01B
:1057F000004130BD14F580043CBF01F5801130BD7F
:1058000001F0004545F0FE4141F470014FF0000009
:1058100030BD7FEA645C1ABF194610467FEA655CBA
:105820001CBF0B46024650EA013406BF52EA03355C
:1058300091EA030F41F4002130BD00BF90F0000F4A
:1058400004BF0021704730B54FF4806404F1320486
:105850004FF000054FF0000150E700BF90F0000F3F
:1058600004BF0021704730B54FF4806404F1320466
:1058700010F0004548BF40424FF000013EE700BF36
:1058800042004FEAE2014FEA31014FEA02701FBFC6
:1058900012F07F4393F07F4F81F06051704792F098
:1058A000000F14BF93F07F4F704730B54FF4607412
:1058B00001F0004521F0004120E700BF50EA01025D
:1058C00008BF704730B54FF000050AE050EA01020A
:1058D00008BF704730B511F0004502D5404261EB7A
:1058E00041014FF4806404F132045FEA915C3FF4BB
:1058F000DCAE4FF003025FEADC0C18BF03325FEA54
:10590000DC0C18BF033202EBDC02C2F1200300FA08
:1059100003FC20FA02F001FA03FE40EA0E0021FA2D
:1059200002F11444C1E600BF70B54FF0FF0C4CF417
:10593000E06C1CEA11541DBF1CEA135594EA0C0FCD
:1059400095EA0C0F00F0DEF82C4481EA030621EA08
:105950004C5123EA4C5350EA013518BF52EA033543
:1059600041F4801143F4801338D0A0FB02CE4FF0F5
:105970000005E1FB02E506F00042E0FB03E54FF025
:105980000006E1FB03569CF0000F18BF4EF0010E1D
:10599000A4F1FF04B6F5007F64F5407404D25FEA19
:1059A0004E0E6D4146EB060642EAC62141EA5551CC
:1059B0004FEAC52040EA5E504FEACE2EB4F1FD0C0E
:1059C00088BFBCF5E06F1ED8BEF1004F08BF5FEA8C
:1059D000500E50F1000041EB045170BD06F000463E
:1059E00046EA010140EA020081EA0301B4EB5C04EB
:1059F000C2BFD4EB0C0541EA045170BD41F48011E3
:105A00004FF0000E013C00F3AB8014F1360FDEBF07
:105A1000002001F0004170BDC4F10004203C35DAE3
:105A20000C341BDC04F11404C4F1200500FA05F366
:105A300020FA04F001FA05F240EA020001F0004207
:105A400021F0004110EBD37021FA04F642EB06017D
:105A50005EEA430E08BF20EAD37070BDC4F10C04A7
:105A6000C4F1200500FA04F320FA05F001FA04F26B
:105A700040EA020001F0004110EBD37041F1000157
:105A80005EEA430E08BF20EAD37070BDC4F1200562
:105A900000FA05F24EEA020E20FA04F301FA05F2CA
:105AA00043EA020321FA04F001F0004121FA04F272
:105AB00020EA020000EBD3705EEA430E08BF20EA42
:105AC000D37070BD94F0000F0FD101F0004640007C
:105AD00041EB010111F4801F08BF013CF7D041EAFE
